:100000000C9464000C948C000C948C000C948C0068
:100010000C948C000C94B5070C948C000C940F0776
:100020000C948C000C948C000C948C000C948C0020
:100030000C948C000C948C000C948C000C948C0010
:100040000C946B070C948C000C948C000C948C001A
:100050000C948C000C948C000C948C000C948C00F0
:100060000C948C000C948C000000000023002600EF
:10007000290000000008000201000003040700003E
:1000800000000000000000000000240027002A00FB
:10009000010204081020408001020408102001021F
:1000A0000408102000000000250028002B00040494
:1000B0000404040404040202020202020303030310
:1000C000030302004F0E7E0E11241FBECFEFD8E0B7
:1000D000DEBFCDBF11E0A0E0B1E0E4E5F2E202C096
:1000E00005900D92A03AB107D9F722E0A0EAB1E05D
:1000F00001C01D92A831B207E1F710E0C3E6D0E0DD
:1001000004C02197FE010E941011C236D107C9F721
:100110000E9402080C941D110C940000AF92BF9233
:10012000CF92DF92EF92FF920F931F93CF93DF93C3
:100130006C017B018B01040F151FEB015E01AE18F2
:10014000BF08C017D10759F06991D601ED91FC9114
:100150000190F081E02DC6010995892B79F7C50141
:10016000DF91CF911F910F91FF90EF90DF90CF9093
:10017000BF90AF900895833081F028F4813099F0DA
:100180008230A9F008958730A9F08830C9F0843012
:10019000B1F4809180008F7D03C0809180008F77C3
:1001A00080938000089584B58F7784BD089584B5C9
:1001B0008F7DFBCF8091B0008F778093B000089542
:1001C0008091B0008F7DF9CFCF93DF93282F30E05F
:1001D000F901EE58FF4F8491F901E057FF4FD49198
:1001E000F901E255FF4FC491CC23A1F081110E9487
:1001F000BB00EC2FF0E0EE0FFF1FE859FF4FA59179
:10020000B491EC91ED2381E090E009F480E0DF917E
:10021000CF91089580E090E0FACF1F93CF93DF93C2
:10022000282F30E0F901EE58FF4F8491F901E05793
:10023000FF4FD491F901E255FF4FC491CC23A9F0AF
:10024000162F81110E94BB00EC2FF0E0EE0FFF1F74
:10025000EC55FF4FA591B4918FB7F894EC91111123
:1002600008C0D095DE23DC938FBFDF91CF911F9123
:100270000895DE2BF8CF1F93CF93DF93EC0180918D
:10028000FF01882309F452C08091DB01882361F0CB
:100290008FB7F8949091DB019130B9F59DB39093AD
:1002A000DA019DB39DBB8FBF88E58CBD81E08DBD1C
:1002B00060E08091FE010E940D019C2F8D2F0CB4F7
:1002C00005FC26C0DEBD00000DB407FEFDCF8EB5D7
:1002D0009EBD00000DB407FEFDCF8EB561E080919C
:1002E000FE010E940D018091DB01882351F09FB730
:1002F000F8942091DB018091DA012130A9F48DBBC3
:100300009FBFDF91CF911F9108958093DA01CCCFE9
:10031000CEBD00000DB407FEFDCF9EB58EBD000022
:100320000DB407FEFDCFD9CF8FBFEBCF60E080913A
:10033000FE010E940D0110E16D2F661F6627661FEA
:100340008091FC010E940D0160E08091FD010E94FE
:100350000D0161E08091FD010E940D01CC0FDD1FB8
:10036000115051F760E08091FC010E940D0161E0A5
:100370008091FE01DF91CF911F910C940D01EF92BE
:10038000FF920F931F93CF93DF93EC01CB01BA0140
:10039000FE01EE0FFF1FEE0FFF1FE051FE4F6083C7
:1003A0007183828393838E01000F111F000F111F31
:1003B000980124523E4F790120E030E040E85DE4AE
:1003C0000E94A31020E23CEB4EEB5BE40E94740F12
:1003D00020E030E040E05FE30E94080F0E94E60F5B
:1003E000F7016283738384839583219759F1C0E079
:1003F000D0E48091DC019091DD010E943B01045228
:100400001E4FF801828193819F738C2B9D2B0E943C
:100410003B01F80182819381A481B5812EE0B695DC
:10042000A795979587952A95D1F79F738C2B9D2B30
:100430000E943B0181E0DF91CF911F910F91FF90CE
:10044000EF900895C0E0D0E8D4CF909102018913D5
:100450000BC0E2ECF0E0E4919FEF90930201E130F9
:1004600049F028F0E23061F060E00C940D01109248
:100470006E00FACF90916F009D7F90936F00F4CF44
:10048000909170009D7F9093700091E09093B000E8
:100490009091B100987F94609093B1001092B30056
:1004A000E3CFCF93DF9390E0FC01E057FF4F24911F
:1004B00082559F4FFC0184918823C9F090E0880FFA
:1004C000991FFC01EA57FF4FA591B491FC01EC552F
:1004D000FF4FC591D49161110DC09FB7F8948C91D5
:1004E000209582238C938881282328839FBFDF91C6
:1004F000CF910895623051F49FB7F8943C91822FC8
:10050000809583238C93E8812E2BEFCF8FB7F894BF
:10051000EC912E2B2C938FBFEACF8E50806480936A
:100520007C0080917A00806480937A0080917A00C8
:1005300086FDFCCF809178009091790008953FB7B7
:10054000F8948091A4019091A501A091A601B09189
:10055000A70126B5A89B05C02F3F19F00196A11D44
:10056000B11D3FBFBA2FA92F982F8827BC01CD01FD
:10057000620F711D811D911D42E0660F771F881F5C
:10058000991F4A95D1F708958F929F92AF92BF928B
:10059000CF92DF92EF92FF924B015C010E949F028B
:1005A0006B017C010E949F026C197D098E099F09D5
:1005B000683E734081059105A8F321E0821A9108F5
:1005C000A108B10888EEC80E83E0D81EE11CF11C1A
:1005D00081149104A104B10429F7FF90EF90DF90FA
:1005E000CF90BF90AF909F908F900895089590E026
:1005F00080E008958EE00E94E400892B91F464E18C
:1006000070E080E090E00E94C4028EE00E94E4006E
:10061000892B39F48EE00E94E400892BD9F381E024
:10062000089580E008951F93CF93DF93EC01188124
:100630008FE090E00E94960E181729F0612F8FE04E
:1006400090E00E949E0E198180E190E00E94960E3B
:10065000181729F0612F80E190E00E949E0ECE01D4
:10066000DF91CF911F9108959F92AF92BF92CF9249
:10067000DF92EF92FF920F931F93CF93DF935C0172
:100680007B018B01D0E0C0E0F80191908F01650102
:10069000CC0EDD1EC6010E94960E981621F0692D23
:1006A000C6010E949E0E2196C430D10569F7C7018C
:1006B000DF91CF911F910F91FF90EF90DF90CF903E
:1006C000BF90AF909F900895CF92DF92EF92FF92EC
:1006D0000F931F93CF93DF93EB017B0124E0E20E96
:1006E000F11C8B016C01C61AD70AC601800F911F3D
:1006F0000E94960EF80181938F01EE15FF05A9F770
:10070000CE01DF91CF911F910F91FF90EF90DF907D
:10071000CF9008958F929F92AF92BF920F931F93A5
:10072000CF93DF93CDB7DEB7A1970FB6F894DEBFB6
:100730000FBECDBF19A2423008F44AE08E010F5D12
:100740001F4F842E912CB12CA12CA50194010E9445
:10075000D60EE62FB901CA01EA3044F5E05DD801B2
:10076000EE938D01232B242B252B79F790E080E04D
:10077000109769F0FD0101900020E9F73197AF0172
:100780004A1B5B0BBD0180E092E00E948E00A196A7
:100790000FB6F894DEBF0FBECDBFDF91CF911F9192
:1007A0000F91BF90AF909F908F900895E95CD7CF45
:1007B000FC0101900020E9F73197AF01481B590B6C
:1007C000BC0180E092E00C948E00CF93DF93EC01AB
:1007D00060E08E810E940D0161E08E810E940D011A
:1007E00060E08E810E940D018BE891E00197F1F7A6
:1007F000DF91CF910895CF92DF92EF92FF920F9306
:100800001F93CF93DF936C017C0187E0E80EF11C0E
:10081000D0E0C0E0062F10E0B8010C2E02C07595A4
:1008200067950A94E2F76170F70181917F010E9458
:100830000D012196C430D10579F7C601DF91CF9122
:100840001F910F91FF90EF90DF90CF900C94E503F4
:10085000CF92DF92EF92FF920F931F93CF93DF938C
:10086000EC01F62E642F8C810E940D018D818F3F4B
:1008700019F060E00E940D010F2D10E08F8584FFBC
:1008800025C06E0187E0C80ED11CF12CE12CB80107
:100890000E2C02C0759567950A94E2F76170F60117
:1008A00081916F010E940D01FFEFEF1AFF0A88E0AE
:1008B000E816F10461F7CE01DF91CF911F910F91FE
:1008C000FF90EF90DF90CF900C94E503B80184E0A7
:1008D000759567958A95E1F7CE010E94FB036F2D10
:1008E000CE01DF91CF911F910F91FF90EF90DF909C
:1008F000CF900C94FB0340E0682F80E092E00C94D2
:10090000280481E00E947B048BE39FE10197F1F7CB
:100910000895CF93DF93823029F490910F0298606D
:1009200090930F02809313021092140280E480933C
:10093000150280E18093160280E58093170261E042
:10094000809104020E945102809105028F3F19F0AC
:1009500061E00E94510261E0809106020E94510212
:10096000C0E0D2E09E012050324080910F0284FD11
:100970000BC084E090E021962817390744F461E029
:100980008E810E945102EECF88E090E0F4CF8BE39D
:100990009DE00197F1F760E0809104020E940D0153
:1009A00060E0809106020E940D01809105028F3F58
:1009B00019F060E00E940D0180910F0284FD34C0A7
:1009C00063E080E092E00E94FB03CBE4D6E4CE013A
:1009D0000197F1F763E080E092E00E94FB0321972A
:1009E000F1F763E080E092E00E94FB0383E592E090
:1009F0000197F1F762E080E092E00E94FB038091B2
:100A00000F0280620E947B0484E0809310028CE0DD
:100A10000E947B040E94810482E08093110286E0A0
:100A2000DF91CF910C947B0480620E947B048BE465
:100A300096E40197F1F780910F0280620E947B0497
:100A400083E592E00197F1F780910F0280620E94A6
:100A50007B04D5CF90911302691710F06FEF690FE7
:100A6000E62FF0E0E050FE4F9489890F80680C94E7
:100A70007B0441E00E94280481E090E008950F93F8
:100A80001F93CF93DF93EC018EE00E94E400892B4B
:100A900009F075C061E080E00E942A0589E391E0D9
:100AA0000E94D803009100011091010161E08CE0E7
:100AB000801B0E942A056EE580E092E00E943905C5
:100AC000CF3FDC0769F40F5F1F4F109301010093C4
:100AD000000104301105E9F00830110509F442C0A5
:100AE000C130D105E1F4809100019091010101979D
:100AF000909301018093000184309105B1F1883019
:100B0000910581F1892B59F4D0930101C093000123
:100B100006C085E090E090930101809300018091F0
:100B20000001909101018430910514F59093080122
:100B30008093070161E080E00E942A0589E391E04B
:100B40000E94D8039091000161E08CE0891B0E9413
:100B50002A056EE580E092E0DF91CF911F910F9121
:100B60000C94390587E090E0D6CF83E090E0D3CFB6
:100B70008830910514F40197D9CF0297D7CF80918F
:100B80000D0190910E01A0910F01B0911001C130A3
:100B9000D10509F062C040910301509104016091B8
:100BA000050170910601840F951FA61FB71F809342
:100BB0000D0190930E01A0930F01B093100180914D
:100BC0000D0190910E01A0910F01B0911001893F8C
:100BD00023EF92072AE9A207B105A4F0409103018F
:100BE000509104016091050170910601841B950BE1
:100BF000A60BB70B80930D0190930E01A0930F01EC
:100C0000B093100180910D0190910E01A0910F0100
:100C1000B0911001893929E092072AE9A207B105AC
:100C2000A4F4409103015091040160910501709179
:100C30000601840F951FA61FB71F80930D01909387
:100C40000E01A0930F01B093100181E08093C301C6
:100C5000DF91CF911F910F910895219609F0AFCFA9
:100C600040910301509104016091050170910601CA
:100C7000481759076A077B0708F0A1CF4091030185
:100C8000509104016091050170910601841B950B40
:100C9000A60BB70B8CCF41E0682F80E092E00E945A
:100CA000280481E090E00895CF92DF92EF92FF92C6
:100CB000CF93DF9397FF19C06B017C018DE20E94F7
:100CC0004B06EC0166277727CB016C197D098E094D
:100CD0009F094AE00E948A038C0F9D1FDF91CF91EC
:100CE000FF90EF90DF90CF9008954AE0DF91CF9191
:100CF000FF90EF90DF90CF900C948A03CF92DF9219
:100D0000EF92FF92CF93DF930E94810461E070E045
:100D100080E090E00E94C40260E081E00E942A0529
:100D200060910D0170910E0180910F019091100161
:100D300020E432E44FE050E00E94AC0E69017A01F9
:100D4000E9012436310540F480E20E944B062A97DF
:100D500018F480E20E944B06C701B6018827992744
:100D60004AE00E948A038EE20E944B0660910D01C8
:100D700070910E0180910F019091100120E432E4F6
:100D80004FE050E00E94AC0E28EE33E040E050E02F
:100D90000E94AC0E69017A01E9012436310540F464
:100DA00080E30E944B062A9718F480E30E944B06CA
:100DB000C701B601882799274AE00E948A038EE27C
:100DC0000E944B0660910D0170910E0180910F0100
:100DD0009091100128EE33E040E050E00E94AC0E0C
:100DE0006B017C01EB016436710540F480E30E94E5
:100DF0004B062A9718F480E30E944B06C701B60100
:100E0000882799274AE00E948A038AE491E0DF91CB
:100E1000CF91FF90EF90DF90CF900C94D8031F926A
:100E20000F920FB60F9211242F933F934F935F931E
:100E30006F937F938F939F93AF93BF93EF93FF93A2
:100E40008091AE019091AF01A091B001B091B1013C
:100E5000892B8A2B8B2BD1F19091A901E091AA01CA
:100E6000F091AB018081892780838091AE019091C0
:100E7000AF01A091B001B091B101181619061A0680
:100E80001B069CF48091AE019091AF01A091B0013E
:100E9000B091B1010197A109B1098093AE0190937E
:100EA000AF01A093B001B093B101FF91EF91BF9159
:100EB000AF919F918F917F916F915F914F913F91F2
:100EC0002F910F900FBE0F901F90189580910201E7
:100ED0000E942502EACF1F920F920FB60F921124A3
:100EE0002F933F938F939F93AF93BF938091BA01BA
:100EF0009091BB01A091BC01B091BD013091A301C3
:100F000023E0230F2D3758F50196A11DB11D209325
:100F1000A3018093BA019093BB01A093BC01B0934D
:100F2000BD018091A4019091A501A091A601B0916D
:100F3000A7010196A11DB11D8093A4019093A50165
:100F4000A093A601B093A701BF91AF919F918F91FC
:100F50003F912F910F900FBE0F901F90189526E88C
:100F6000230F0296A11DB11DD2CF1F920F920FB673
:100F70000F9211242F933F934F935F936F937F931F
:100F80008F939F93AF93BF93CF93DF93EF93FF9391
:100F90008091A2010E94E400EC018091A1010E94D5
:100FA000E4009091A0019F70CC0FDD1FC82B24E0BE
:100FB000929FC00111248F5E9E4FC80FD92FD11D63
:100FC00088818093A00180738031B9F481E090E042
:100FD0000E943F05FF91EF91DF91CF91BF91AF91BB
:100FE0009F918F917F916F915F914F913F912F9141
:100FF0000F900FBE0F901F901895803259F78FEF0A
:101000009FEFE6CFCF93DF93CDB7DEB728970FB62C
:10101000F894DEBF0FBECDBF789484B5826084BDE6
:1010200084B5816084BD85B5826085BD85B58160EC
:1010300085BD80916E00816080936E00109281006A
:101040008091810082608093810080918100816025
:1010500080938100809180008160809380008091E6
:10106000B10084608093B1008091B0008160809372
:10107000B00080917A00846080937A0080917A0039
:10108000826080937A0080917A00816080937A00F8
:1010900080917A00806880937A001092C10082E08B
:1010A0000E9489040E9481048091FF01882309F431
:1010B00018C41FB7F8948091A801811127C0E8EBEC
:1010C000F0E08491EAE9F0E09491E82FF0E0EE0F8F
:1010D000FF1FEA57FF4FA591B491EC91E92321F44A
:1010E00061E08AE00E940D0161E08AE00E94510205
:1010F0008CB580618CBD8CB580648CBD61E08DE069
:101100000E94510261E08BE00E9451028091A8018F
:101110008F5F8093A8011FBF61E08091FE010E9454
:10112000510261E08091FE010E940D0180E090E299
:101130009093DD018093DC010E943B018091DC01F2
:101140009091DD0191609093DD018093DC010E941C
:101150003B0140E050E06AE774E490E080E00E94E8
:10116000BF0140E050E06AE774E481E090E00E9453
:10117000BF011092F9011092F8011092E60110924D
:10118000E7011092E8011092E90180E090EC0E94E2
:101190003B011092FB011092FA011092EA011092A9
:1011A000EB011092EC011092ED0180E090EE0E94B4
:1011B0003B018091DC019091DD0191609093DD0114
:1011C0008093DC010E943B018091DC019091DD0164
:1011D0009E7F9093DD018093DC010E943B0101E042
:1011E00010E01093EF010093EE018091DC019091EB
:1011F000DD018D719093DD018093DC010E943B0144
:101200008091DC019091DD01977F9093DD018093C7
:10121000DC010E943B018091DC019091DD019B7F0C
:101220009093DD018093DC010E943B0160910D01F0
:1012300070910E0180910F01909110010E94171082
:10124000AB01BC0190E080E00E94BF011093EF0170
:101250000093EE018091DC019091DD018D719093FE
:10126000DD018093DC010E943B01BE016F5F7F4F77
:1012700082E090E00E94640389819A81AB81BC8105
:10128000AC01BD01495959406A49710940365A4E6D
:101290006105710508F035C380930D0190930E012F
:1012A000A0930F01B093100162E08EE00E94510202
:1012B00062E08FE00E94510262E080E10E945102F0
:1012C00061E081E10E94510260E082E10E945102EE
:1012D00060E083E10E94510261E08CE00E945102D3
:1012E00061E081E10E940D0161E083E00E940D0157
:1012F00061E082E00E940D0180916800846080932B
:10130000680080916D008C6080936D0078940E94DD
:10131000FA02882309F427C380910D0190910E01F0
:10132000A0910F01B0911001AC01BD0140545B468A
:101330006A4971094093090150930A0160930B01B6
:1013400070930C01895B9745AA49B1098F30974288
:10135000A105B10508F0DAC269E071E08FE090E024
:101360000E9434030E94810461E070E080E090E01C
:101370000E94C40260E080E00E942A058EE491E0B1
:101380000E94D8036091090170910A0180910B01BC
:1013900090910C010E9454068AE491E00E94D803C7
:1013A00061E080E00E942A0584E591E00E94D80374
:1013B00063E070E080E090E00E94C4022091D601DA
:1013C0003091D7014091D8015091D901AAE0B0E005
:1013D0000E94CB0E00910D0110910E0120910F0182
:1013E00030911001600F711F821F931F6052734074
:1013F000810991090091090110910A0120910B01C5
:1014000030910C01600F711F821F931F0E941710F3
:10141000AB01BC0190E080E00E94BF0160910D0132
:1014200070910E0180910F019091100100910901BE
:1014300010910A0120910B0130910C01600F711F76
:10144000821F931F0E941710AB01BC0181E090E046
:101450000E94BF018091DC019091DD01977F909304
:10146000DD018093DC010E943B010E947E06442442
:101470004A9443E0542E612C712C88248A94982C31
:10148000540122242394312C83E10E948D0228E10F
:1014900030E0DC010E941611A30192010E94AC0E03
:1014A0002C50310941095109AAE0B0E00E94CB0E4D
:1014B0006B017C01C092D601D092D701E092D80195
:1014C000F092D9018091D2019091D301A091D401E1
:1014D000B091D501C816D906EA06FB0609F466C024
:1014E000C092D201D092D301E092D401F092D50102
:1014F00061E080E00E942A058FE891E0F7FE02C0DB
:1015000081E991E00E94D803E0900D01F0900E0176
:1015100000910F0110911001C090D601D090D70119
:101520008091D8018F839091D9019887D801C70104
:1015300089599940AA49B10980369A4EA105B10549
:1015400018F5AAE0B0E096014F8158850E94CB0EB5
:101550006E0D7F1D801F911F60527340810991099C
:101560000091090110910A0120910B0130910C01A9
:10157000600F711F821F931F0E941710AB01BC01E7
:1015800090E080E00E94BF01B6018F81988597FFAF
:1015900007C090958095709561957F4F8F4F9F4FB5
:1015A0000E94540683E991E00E94D80382E10E94E0
:1015B0008D0228E631E0DC010E941611A3019201A0
:1015C0000E94AC0E285D3F4F4F4F5F4FAAE0B0E046
:1015D0000E94CB0E6093CE017093CF018093D00117
:1015E0009093D1010091CA011091CB012091CC01BF
:1015F0003091CD016017710782079307F9F060936E
:10160000CA017093CB018093CC019093CD0161E02E
:1016100086E00E942A0587E991E00E94D803609144
:10162000CE017091CF018091D0019091D1014AE01B
:101630000E948A0388E491E00E94D80380E10E941E
:10164000E400E090C801F090C901019709F0D5C10C
:101650008CE00E94250281E0E816F10409F0C4C183
:101660008FB7F8944091BA015091BB016091BC01D1
:101670007091BD018FBF8091C4019091C501A0916F
:10168000C601B091C701481B590B6A0B7B0B009137
:10169000CE011091CF012091D0013091D1018091E4
:1016A000DC019091DD01041715072607370708F0C4
:1016B0008EC1977F9093DD018093DC010E943B01F6
:1016C000F092EF01E092EE018091DC019091DD015A
:1016D0008D719093DD018093DC010E943B0160E0FD
:1016E00081E10E940D011092C9011092C801809100
:1016F000C301882309F4B2C00E947E06C0900D0188
:10170000D0900E01E0900F01F0901001D701C601BA
:1017100089599940AA49B10980369A4EA105B10567
:1017200008F044C02091D6013091D7014091D801F2
:101730005091D901AAE0B0E00E94CB0E6C0D7D1D46
:101740008E1D9F1D6052734081099109C09009014F
:10175000D0900A01E0900B01F0900C016C0D7D1D02
:101760008E1D9F1D0E941710AB01BC0190E080E010
:101770000E94BF0160910D0170910E0180910F01D7
:10178000909110010091090110910A0120910B0123
:1017900030910C01600F711F821F931F0E94171060
:1017A000AB01BC0181E090E00E94BF0161E080E0FC
:1017B0000E942A058091D6019091D701A091D8016D
:1017C000B091D901B7FD2CC28FE891E00E94D803F7
:1017D0006091D6017091D7018091D8019091D90183
:1017E00097FF07C090958095709561957F4F8F4FBB
:1017F0009F4F0E94540683E991E00E94D80361E064
:1018000086E00E942A0587E991E00E94D803609152
:10181000CE017091CF018091D0019091D1014AE029
:101820000E948A0388E491E00E94D8031092C301C9
:1018300081E08093C2012FB7F8948091BA01909112
:10184000BB01A091BC01B091BD012FBF8093BE012F
:101850009093BF01A093C001B093C1018091C201D8
:10186000882321F12FB7F8948091BA019091BB01A0
:10187000A091BC01B091BD012FBF4091BE0150911C
:10188000BF016091C0017091C101841B950BA60B33
:10189000B70B81319742A105B10540F06DE071E0D1
:1018A00082E090E00E9434031092C2010E94FA028A
:1018B000882309F4C4C1E0910701F0910801319730
:1018C000E930F10508F0BBC1E859F34F0C94101151
:1018D000130E270E2C0E310E360E3B0E400E450E0B
:1018E0004A0E61E08091FC010E94510260E080910B
:1018F000FD010E940D0161E08091FD010E945102F5
:101900000BCC88EC9EE7AAE9B0E0C6CC1E821D8213
:10191000CE0105960E94130360E080E00E942A0534
:101920008EE491E00E94D8036091090170910A0150
:1019300080910B0190910C010E94540683E691E086
:101940000E94D80361E080E00E942A058BE691E0C6
:101950000E94D8031092090110920A0110920B0103
:1019600010920C0125CD69E071E08FE090E00E94BB
:1019700064038091090190910A01A0910B01B0913B
:101980000C01B7FF07C0B095A095909581959F4F2A
:10199000AF4FBF4F89389341A105B1050CF40ECD6F
:1019A00060E080E00E942A058CE791E00E94D80365
:1019B00061E080E00E942A058BE691E00E94D80356
:1019C0001E821D82CE0105960E941303C3CF109282
:1019D000EF011092EE018D7D806C9093DD0180937C
:1019E000DC010E943B0183CE60E080E00E942A057A
:1019F0008EE991E00E94D8037ACEEF28B9F43092B4
:101A0000C9012092C80160E080E00E942A058AE7AF
:101A100091E00E94D8038091DC019091DD019860F3
:101A20009093DD018093DC010E943B013092EF0135
:101A30002092EE018091DC019091DD018D719093F7
:101A4000DD018093DC010E943B012FB7F894809167
:101A5000BA019091BB01A091BC01B091BD012FBF13
:101A60008093C4019093C501A093C601B093C701B0
:101A7000809102018C30B9F4E2ECF0E0149117FD92
:101A8000B3C061E08CE00E945102112309F47DC0D3
:101A9000123009F08EC08091B100887F84608093FD
:101AA000B1008BE9ADC08F3F09F09EC08CE0809300
:101AB0000201E2ECF0E014911F3F09F495C01130EF
:101AC00021F150F0123009F43EC017FD8DC061E0E5
:101AD0008CE00E945102DCCF14BC15BC84B582603E
:101AE00084BD85B5816085BDEAEBF0E0E491F0E06E
:101AF000EE0FFF1FEC55FF4F85919491ECE9F0E05C
:101B0000E491E093AD0110E0BCCF10928000109200
:101B100081008091810088608093810080918100A4
:101B2000816080938100EAEBF0E0E491F0E0EE0F59
:101B3000FF1FEC55FF4F85919491ECE9F0E0E491A3
:101B4000E093AC019ECF1092B0001092B100809152
:101B5000B00082608093B0008091B100816080937A
:101B6000B100EAEBF0E0E491F0E0EE0FFF1FEC557E
:101B7000FF4F859194919093AB018093AA01ECE97A
:101B8000F0E0E491E093A9017CCF85B5887F836084
:101B900085BD8BE987BD8092B6019092B701A09276
:101BA000B801B092B90180916E00826080936E009E
:101BB0001BC01130F1F480918100887F8160809397
:101BC0008100AFE0B7E2B0938900A09388008092D3
:101BD000B2019092B301A092B401B092B50180918C
:101BE0006F00826080936F0061E081E10E940D01CF
:101BF0007ECD123021F01111F7CF8FE0CBCF8FE0E7
:101C00008093B3008092AE019092AF01A092B00198
:101C1000B092B10180917000826080937000E4CF37
:101C200081E991E0D3CD81E090E0A0E0B0E0809345
:101C3000030190930401A0930501B093060180E095
:101C400090E0892B09F420CC0E9400001ACC8AE095
:101C500090E0A0E0B0E0EBCF84E690E0A0E0B0E060
:101C6000E6CF88EE93E0A0E0B0E0E1CF80E197E23C
:101C7000A0E0B0E0DCCF80EA96E8A1E0B0E0D7CF0A
:101C800080E492E4AFE0B0E0D2CF80E896E9A8E942
:101C9000B0E0CDCF80E091EEA5EFB5E0C8CFE0E0B9
:101CA000F2E01382128281E391E09183808389E0E4
:101CB00084838FEF858388E0868384E0878385E053
:101CC000808786E0818787E0828713861486158661
:101CD0001686178681E00E948904ECEDF1E08BE026
:101CE00080A38DE081A38AE082A313A2E0EAF1E061
:101CF00083E0818382E08283108208958091FF01D6
:101D0000882399F09FB7F8948091A801882319F04F
:101D100081508093A8018091A801811105C08CB5E4
:101D20008F7B8CBD1092DB019FBF0895F999FECF88
:101D300092BD81BDF89A992780B50895262FF9990B
:101D4000FECF1FBA92BD81BD20BD0FB6F894FA9A9E
:101D5000F99A0FBE01960895052E97FB1EF4009484
:101D60000E94C30E57FD07D00E94D60E07FC03D079
:101D70004EF40C94C30E50954095309521953F4FED
:101D80004F4F5F4F089590958095709561957F4F67
:101D90008F4F9F4F08950E94F80EA59F900DB49FFE
:101DA000900DA49F800D911D11240895A1E21A2E7B
:101DB000AA1BBB1BFD010DC0AA1FBB1FEE1FFF1FEF
:101DC000A217B307E407F50720F0A21BB30BE40B3F
:101DD000F50B661F771F881F991F1A9469F7609586
:101DE0007095809590959B01AC01BD01CF01089540
:101DF000A29FB001B39FC001A39F700D811D11244C
:101E0000911DB29F700D811D1124911D0895505890
:101E1000BB27AA270E941F0F0C9469100E945B1019
:101E200038F00E94621020F039F49F3F19F426F434
:101E30000C9458100EF4E095E7FB0C945210E92F27
:101E40000E947A1058F3BA17620773078407950740
:101E500020F079F4A6F50C949C100EF4E0950B2E6E
:101E6000BA2FA02D0B01B90190010C01CA01A001EC
:101E70001124FF27591B99F0593F50F4503E68F147
:101E80001A16F040A22F232F342F4427585FF3CF88
:101E9000469537952795A795F0405395C9F77EF459
:101EA0001F16BA0B620B730B840BBAF09150A1F0A2
:101EB000FF0FBB1F661F771F881FC2F70EC0BA0F28
:101EC000621F731F841F48F4879577956795B795B0
:101ED000F7959E3F08F0B0CF9395880F08F09927AB
:101EE000EE0F9795879508950E94880F0C946910BE
:101EF0000E94621058F00E945B1040F029F45F3F8E
:101F000029F00C94521051110C949D100C945810FF
:101F10000E947A1068F39923B1F3552391F3951B2E
:101F2000550BBB27AA2762177307840738F09F5FFA
:101F30005F4F220F331F441FAA1FA9F335D00E2E67
:101F40003AF0E0E832D091505040E695001CCAF7D4
:101F50002BD0FE2F29D0660F771F881FBB1F261797
:101F600037074807AB07B0E809F0BB0B802DBF016E
:101F7000FF2793585F4F3AF09E3F510578F00C943D
:101F800052100C949D105F3FE4F3983ED4F3869575
:101F900077956795B795F7959F5FC9F7880F911D5E
:101FA0009695879597F90895E1E0660F771F881F4A
:101FB000BB1F621773078407BA0720F0621B730BFD
:101FC000840BBA0BEE1F88F7E09508950E948210EB
:101FD00088F09F5798F0B92F9927B751B0F0E1F0EA
:101FE000660F771F881F991F1AF0BA95C9F714C09A
:101FF000B13091F00E949C10B1E008950C949C10B7
:10200000672F782F8827B85F39F0B93FCCF38695D2
:1020100077956795B395D9F73EF49095809570952F
:1020200061957F4F8F4F9F4F0895E89409C097FBAC
:102030003EF490958095709561957F4F8F4F9F4F9F
:102040009923A9F0F92F96E9BB279395F6958795E3
:1020500077956795B795F111F8CFFAF4BB0F11F4A6
:1020600060FF1BC06F5F7F4F8F4F9F4F16C088234D
:1020700011F096E911C0772321F09EE8872F762F83
:1020800005C0662371F096E8862F70E060E02AF0C4
:102090009A95660F771F881FDAF7880F96958795B0
:1020A00097F9089597F99F6780E870E060E00895D8
:1020B0009FEF80EC089500240A9416161706180660
:1020C0000906089500240A9412161306140605063C
:1020D0000895092E0394000C11F4882352F0BB0FCD
:1020E00040F4BF2B11F460FF04C06F5F7F4F8F4F30
:1020F0009F4F089557FD9058440F551F59F05F3F6B
:1021000071F04795880F97FB991F61F09F3F79F019
:1021100087950895121613061406551FF2CF46959B
:10212000F1DF08C0161617061806991FF1CF86951D
:102130007105610508940895E894BB276627772701
:10214000CB0197F908950E94B6100C9469100E9473
:102150005B1038F00E94621020F0952311F00C946F
:1021600052100C94581011240C949D100E947A1057
:1021700070F3959FC1F3950F50E0551F629FF001DA
:10218000729FBB27F00DB11D639FAA27F00DB11DF3
:10219000AA1F649F6627B00DA11D661F829F22277C
:1021A000B00DA11D621F739FB00DA11D621F839F03
:1021B000A00D611D221F749F3327A00D611D231FD9
:1021C000849F600D211D822F762F6A2F11249F5727
:1021D00050409AF0F1F088234AF0EE0FFF1FBB1F2A
:1021E000661F771F881F91505040A9F79E3F5105E9
:1021F00080F00C9452100C949D105F3FE4F3983ED5
:10220000D4F3869577956795B795F795E7959F5F92
:10221000C1F7FE2B880F911D9695879597F9089524
:10222000EE0FFF1F0590F491E02D09940E94F80E27
:10223000B7FF0895821B930B089510E0C3E6D0E02A
:1022400004C0FE010E9410112196C436D107C9F7BF
:04225000F894FFCF30
:102254000300FF6400000003002C010000201D9A0D
:102264000000020400030001100302000003020145
:102274000006000400060500200605040000000016
:102284000039058E00F702F60220202020202020AD
:102294002020202020202020200020487A00436194
:1022A4006C3A200043616C6962726174696F6E20DC
:1022B4004F4B0020487A202121210043616C696240
:1022C400726174696F6E52455345540052455045CE
:1022D40041542043616C6962726174696F6E002BB2
:1022E400002D003020200020424B494E2000520097
:00000001FF
